{
  "_format": "hh-sol-artifact-1",
  "contractName": "Exchange",
  "sourceName": "contracts/Exchange.sol",
  "abi": [
    {
      "inputs": [
        {
          "internalType": "address",
          "name": "_token0",
          "type": "address"
        },
        {
          "internalType": "address",
          "name": "_token1",
          "type": "address"
        }
      ],
      "stateMutability": "nonpayable",
      "type": "constructor"
    },
    {
      "inputs": [
        {
          "internalType": "uint256",
          "name": "amount0",
          "type": "uint256"
        },
        {
          "internalType": "uint256",
          "name": "amount1",
          "type": "uint256"
        }
      ],
      "name": "addLiquidity",
      "outputs": [],
      "stateMutability": "nonpayable",
      "type": "function"
    },
    {
      "inputs": [],
      "name": "getPrice",
      "outputs": [
        {
          "internalType": "uint256",
          "name": "",
          "type": "uint256"
        }
      ],
      "stateMutability": "view",
      "type": "function"
    },
    {
      "inputs": [],
      "name": "reserve0",
      "outputs": [
        {
          "internalType": "uint256",
          "name": "",
          "type": "uint256"
        }
      ],
      "stateMutability": "view",
      "type": "function"
    },
    {
      "inputs": [],
      "name": "reserve1",
      "outputs": [
        {
          "internalType": "uint256",
          "name": "",
          "type": "uint256"
        }
      ],
      "stateMutability": "view",
      "type": "function"
    },
    {
      "inputs": [
        {
          "internalType": "address",
          "name": "inputToken",
          "type": "address"
        },
        {
          "internalType": "uint256",
          "name": "amountIn",
          "type": "uint256"
        }
      ],
      "name": "swap",
      "outputs": [
        {
          "internalType": "uint256",
          "name": "",
          "type": "uint256"
        }
      ],
      "stateMutability": "nonpayable",
      "type": "function"
    },
    {
      "inputs": [],
      "name": "token0",
      "outputs": [
        {
          "internalType": "contract IERC20",
          "name": "",
          "type": "address"
        }
      ],
      "stateMutability": "view",
      "type": "function"
    },
    {
      "inputs": [],
      "name": "token1",
      "outputs": [
        {
          "internalType": "contract IERC20",
          "name": "",
          "type": "address"
        }
      ],
      "stateMutability": "view",
      "type": "function"
    }
  ],
  "bytecode": "0x608060405234801561001057600080fd5b50604051610d47380380610d478339818101604052810190610032919061011d565b816000806101000a81548173ffffffffffffffffffffffffffffffffffffffff021916908373ffffffffffffffffffffffffffffffffffffffff16021790555080600160006101000a81548173ffffffffffffffffffffffffffffffffffffffff021916908373ffffffffffffffffffffffffffffffffffffffff160217905550505061015d565b600080fd5b600073ffffffffffffffffffffffffffffffffffffffff82169050919050565b60006100ea826100bf565b9050919050565b6100fa816100df565b811461010557600080fd5b50565b600081519050610117816100f1565b92915050565b60008060408385031215610134576101336100ba565b5b600061014285828601610108565b925050602061015385828601610108565b9150509250929050565b610bdb8061016c6000396000f3fe608060405234801561001057600080fd5b506004361061007d5760003560e01c806398d5fdca1161005b57806398d5fdca146100dc5780639cd441da146100fa578063d004f0f714610116578063d21220a7146101465761007d565b80630dfe168114610082578063443cb4bc146100a05780635a76f25e146100be575b600080fd5b61008a610164565b60405161009791906107dd565b60405180910390f35b6100a8610188565b6040516100b59190610811565b60405180910390f35b6100c661018e565b6040516100d39190610811565b60405180910390f35b6100e4610194565b6040516100f19190610811565b60405180910390f35b610114600480360381019061010f919061085d565b6101be565b005b610130600480360381019061012b91906108db565b610338565b60405161013d9190610811565b60405180910390f35b61014e610738565b60405161015b91906107dd565b60405180910390f35b60008054906101000a900473ffffffffffffffffffffffffffffffffffffffff1681565b60025481565b60035481565b6000600254670de0b6b3a76400006003546101af919061094a565b6101b991906109bb565b905090565b60008054906101000a900473ffffffffffffffffffffffffffffffffffffffff1673ffffffffffffffffffffffffffffffffffffffff166323b872dd3330856040518463ffffffff1660e01b815260040161021b939291906109fb565b6020604051808303816000875af115801561023a573d6000803e3d6000fd5b505050506040513d601f19601f8201168201806040525081019061025e9190610a6a565b50600160009054906101000a900473ffffffffffffffffffffffffffffffffffffffff1673ffffffffffffffffffffffffffffffffffffffff166323b872dd3330846040518463ffffffff1660e01b81526004016102be939291906109fb565b6020604051808303816000875af11580156102dd573d6000803e3d6000fd5b505050506040513d601f19601f820116820180604052508101906103019190610a6a565b5081600260008282546103149190610a97565b92505081905550806003600082825461032d9190610a97565b925050819055505050565b60008060009054906101000a900473ffffffffffffffffffffffffffffffffffffffff1673ffffffffffffffffffffffffffffffffffffffff168373ffffffffffffffffffffffffffffffffffffffff1614806103e25750600160009054906101000a900473ffffffffffffffffffffffffffffffffffffffff1673ffffffffffffffffffffffffffffffffffffffff168373ffffffffffffffffffffffffffffffffffffffff16145b610421576040517f08c379a000000000000000000000000000000000000000000000000000000000815260040161041890610b28565b60405180910390fd5b60008060008054906101000a900473ffffffffffffffffffffffffffffffffffffffff1673ffffffffffffffffffffffffffffffffffffffff168573ffffffffffffffffffffffffffffffffffffffff161461048257600354600254610489565b6002546003545b9150915060006103e86103e5866104a0919061094a565b6104aa91906109bb565b9050600081846104ba9190610a97565b83836104c6919061094a565b6104d091906109bb565b90508673ffffffffffffffffffffffffffffffffffffffff166323b872dd3330896040518463ffffffff1660e01b815260040161050f939291906109fb565b6020604051808303816000875af115801561052e573d6000803e3d6000fd5b505050506040513d601f19601f820116820180604052508101906105529190610a6a565b5060008054906101000a900473ffffffffffffffffffffffffffffffffffffffff1673ffffffffffffffffffffffffffffffffffffffff168773ffffffffffffffffffffffffffffffffffffffff16146105cc5760008054906101000a900473ffffffffffffffffffffffffffffffffffffffff166105f0565b600160009054906101000a900473ffffffffffffffffffffffffffffffffffffffff165b73ffffffffffffffffffffffffffffffffffffffff1663a9059cbb33836040518363ffffffff1660e01b815260040161062a929190610b48565b6020604051808303816000875af1158015610649573d6000803e3d6000fd5b505050506040513d601f19601f8201168201806040525081019061066d9190610a6a565b5060008054906101000a900473ffffffffffffffffffffffffffffffffffffffff1673ffffffffffffffffffffffffffffffffffffffff168773ffffffffffffffffffffffffffffffffffffffff16036106f85785600260008282546106d39190610a97565b9250508190555080600360008282546106ec9190610b71565b9250508190555061072b565b856003600082825461070a9190610a97565b9250508190555080600260008282546107239190610b71565b925050819055505b8094505050505092915050565b600160009054906101000a900473ffffffffffffffffffffffffffffffffffffffff1681565b600073ffffffffffffffffffffffffffffffffffffffff82169050919050565b6000819050919050565b60006107a361079e6107998461075e565b61077e565b61075e565b9050919050565b60006107b582610788565b9050919050565b60006107c7826107aa565b9050919050565b6107d7816107bc565b82525050565b60006020820190506107f260008301846107ce565b92915050565b6000819050919050565b61080b816107f8565b82525050565b60006020820190506108266000830184610802565b92915050565b600080fd5b61083a816107f8565b811461084557600080fd5b50565b60008135905061085781610831565b92915050565b600080604083850312156108745761087361082c565b5b600061088285828601610848565b925050602061089385828601610848565b9150509250929050565b60006108a88261075e565b9050919050565b6108b88161089d565b81146108c357600080fd5b50565b6000813590506108d5816108af565b92915050565b600080604083850312156108f2576108f161082c565b5b6000610900858286016108c6565b925050602061091185828601610848565b9150509250929050565b7f4e487b7100000000000000000000000000000000000000000000000000000000600052601160045260246000fd5b6000610955826107f8565b9150610960836107f8565b925082820261096e816107f8565b915082820484148315176109855761098461091b565b5b5092915050565b7f4e487b7100000000000000000000000000000000000000000000000000000000600052601260045260246000fd5b60006109c6826107f8565b91506109d1836107f8565b9250826109e1576109e061098c565b5b828204905092915050565b6109f58161089d565b82525050565b6000606082019050610a1060008301866109ec565b610a1d60208301856109ec565b610a2a6040830184610802565b949350505050565b60008115159050919050565b610a4781610a32565b8114610a5257600080fd5b50565b600081519050610a6481610a3e565b92915050565b600060208284031215610a8057610a7f61082c565b5b6000610a8e84828501610a55565b91505092915050565b6000610aa2826107f8565b9150610aad836107f8565b9250828201905080821115610ac557610ac461091b565b5b92915050565b600082825260208201905092915050565b7f496e76616c696420746f6b656e00000000000000000000000000000000000000600082015250565b6000610b12600d83610acb565b9150610b1d82610adc565b602082019050919050565b60006020820190508181036000830152610b4181610b05565b9050919050565b6000604082019050610b5d60008301856109ec565b610b6a6020830184610802565b9392505050565b6000610b7c826107f8565b9150610b87836107f8565b9250828203905081811115610b9f57610b9e61091b565b5b9291505056fea264697066735822122078e64538d76413fdb74103209c85eb24aa3e62f2b40020f3183dd604c9caaa0064736f6c63430008140033",
  "linkReferences": {},
  "deployedLinkReferences": {}
}